{
  "contractName": "Election",
  "abi": [
    {
      "inputs": [
        {
          "internalType": "uint256",
          "name": "",
          "type": "uint256"
        }
      ],
      "name": "candidateList",
      "outputs": [
        {
          "internalType": "string",
          "name": "name",
          "type": "string"
        },
        {
          "internalType": "uint256",
          "name": "nVotes",
          "type": "uint256"
        }
      ],
      "stateMutability": "view",
      "type": "function",
      "constant": true
    },
    {
      "inputs": [
        {
          "internalType": "address",
          "name": "",
          "type": "address"
        }
      ],
      "name": "voterList",
      "outputs": [
        {
          "internalType": "bool",
          "name": "hasVoted",
          "type": "bool"
        }
      ],
      "stateMutability": "view",
      "type": "function",
      "constant": true
    },
    {
      "inputs": [
        {
          "internalType": "string[]",
          "name": "_names",
          "type": "string[]"
        }
      ],
      "name": "addCandidates",
      "outputs": [],
      "stateMutability": "nonpayable",
      "type": "function"
    },
    {
      "inputs": [
        {
          "internalType": "uint256",
          "name": "id",
          "type": "uint256"
        }
      ],
      "name": "vote",
      "outputs": [],
      "stateMutability": "nonpayable",
      "type": "function"
    },
    {
      "inputs": [],
      "name": "hasVoted",
      "outputs": [
        {
          "internalType": "bool",
          "name": "",
          "type": "bool"
        }
      ],
      "stateMutability": "view",
      "type": "function",
      "constant": true
    },
    {
      "inputs": [
        {
          "internalType": "uint256",
          "name": "id",
          "type": "uint256"
        }
      ],
      "name": "getCandidateVotes",
      "outputs": [
        {
          "internalType": "uint256",
          "name": "",
          "type": "uint256"
        }
      ],
      "stateMutability": "view",
      "type": "function",
      "constant": true
    }
  ],
  "bytecode": "0x608060405234801561001057600080fd5b50610a3c806100206000396000f3fe608060405234801561001057600080fd5b50600436106100625760003560e01c80630121b93f1461006757806303b4caed1461008357806364821338146100b3578063866163c0146100d1578063a999e56214610101578063b13c744b1461011d575b600080fd5b610081600480360381019061007c91906104b9565b61014e565b005b61009d60048036038101906100989190610544565b6101f0565b6040516100aa919061058c565b60405180910390f35b6100bb61021b565b6040516100c8919061058c565b60405180910390f35b6100eb60048036038101906100e691906104b9565b610272565b6040516100f891906105b6565b60405180910390f35b61011b600480360381019061011691906107fd565b610291565b005b610137600480360381019061013291906104b9565b610320565b6040516101459291906108ce565b60405180910390f35b60008082815260200190815260200160002060010160008154809291906101749061092d565b9190505550604051806020016040528060011515815250600160003373ffffffffffffffffffffffffffffffffffffffff1673ffffffffffffffffffffffffffffffffffffffff16815260200190815260200160002060008201518160000160006101000a81548160ff02191690831515021790555090505050565b60016020528060005260406000206000915090508060000160009054906101000a900460ff16905081565b6000600160003373ffffffffffffffffffffffffffffffffffffffff1673ffffffffffffffffffffffffffffffffffffffff16815260200190815260200160002060000160009054906101000a900460ff16905090565b6000806000838152602001908152602001600020600101549050919050565b60005b815181101561031c5760405180604001604052808383815181106102bb576102ba610976565b5b60200260200101518152602001600181525060008083815260200190815260200160002060008201518160000190805190602001906102fb9291906103cc565b506020820151816001015590505080806103149061092d565b915050610294565b5050565b6000602052806000526040600020600091509050806000018054610343906109d4565b80601f016020809104026020016040519081016040528092919081815260200182805461036f906109d4565b80156103bc5780601f10610391576101008083540402835291602001916103bc565b820191906000526020600020905b81548152906001019060200180831161039f57829003601f168201915b5050505050908060010154905082565b8280546103d8906109d4565b90600052602060002090601f0160209004810192826103fa5760008555610441565b82601f1061041357805160ff1916838001178555610441565b82800160010185558215610441579182015b82811115610440578251825591602001919060010190610425565b5b50905061044e9190610452565b5090565b5b8082111561046b576000816000905550600101610453565b5090565b6000604051905090565b600080fd5b600080fd5b6000819050919050565b61049681610483565b81146104a157600080fd5b50565b6000813590506104b38161048d565b92915050565b6000602082840312156104cf576104ce610479565b5b60006104dd848285016104a4565b91505092915050565b600073ffffffffffffffffffffffffffffffffffffffff82169050919050565b6000610511826104e6565b9050919050565b61052181610506565b811461052c57600080fd5b50565b60008135905061053e81610518565b92915050565b60006020828403121561055a57610559610479565b5b60006105688482850161052f565b91505092915050565b60008115159050919050565b61058681610571565b82525050565b60006020820190506105a1600083018461057d565b92915050565b6105b081610483565b82525050565b60006020820190506105cb60008301846105a7565b92915050565b600080fd5b6000601f19601f8301169050919050565b7f4e487b7100000000000000000000000000000000000000000000000000000000600052604160045260246000fd5b61061f826105d6565b810181811067ffffffffffffffff8211171561063e5761063d6105e7565b5b80604052505050565b600061065161046f565b905061065d8282610616565b919050565b600067ffffffffffffffff82111561067d5761067c6105e7565b5b602082029050602081019050919050565b600080fd5b600080fd5b600067ffffffffffffffff8211156106b3576106b26105e7565b5b6106bc826105d6565b9050602081019050919050565b82818337600083830152505050565b60006106eb6106e684610698565b610647565b90508281526020810184848401111561070757610706610693565b5b6107128482856106c9565b509392505050565b600082601f83011261072f5761072e6105d1565b5b813561073f8482602086016106d8565b91505092915050565b600061075b61075684610662565b610647565b9050808382526020820190506020840283018581111561077e5761077d61068e565b5b835b818110156107c557803567ffffffffffffffff8111156107a3576107a26105d1565b5b8086016107b0898261071a565b85526020850194505050602081019050610780565b5050509392505050565b600082601f8301126107e4576107e36105d1565b5b81356107f4848260208601610748565b91505092915050565b60006020828403121561081357610812610479565b5b600082013567ffffffffffffffff8111156108315761083061047e565b5b61083d848285016107cf565b91505092915050565b600081519050919050565b600082825260208201905092915050565b60005b83811015610880578082015181840152602081019050610865565b8381111561088f576000848401525b50505050565b60006108a082610846565b6108aa8185610851565b93506108ba818560208601610862565b6108c3816105d6565b840191505092915050565b600060408201905081810360008301526108e88185610895565b90506108f760208301846105a7565b9392505050565b7f4e487b7100000000000000000000000000000000000000000000000000000000600052601160045260246000fd5b600061093882610483565b91507fffffffffffffffffffffffffffffffffffffffffffffffffffffffffffffffff82141561096b5761096a6108fe565b5b600182019050919050565b7f4e487b7100000000000000000000000000000000000000000000000000000000600052603260045260246000fd5b7f4e487b7100000000000000000000000000000000000000000000000000000000600052602260045260246000fd5b600060028204905060018216806109ec57607f821691505b60208210811415610a00576109ff6109a5565b5b5091905056fea2646970667358221220989caeb92a87a05a794d60456a91fd7294e1bd4912aae2477bc25a091cec20cc64736f6c63430008090033",
  "immutableReferences": {},
  "source": "pragma solidity ^0.8.0;\n\ncontract Election {\n\n    mapping(uint => Candidate) public candidateList;\n    mapping(address => Voter) public voterList;\n\n    function addCandidates(string [] memory _names) public {\n\n        for(uint i=0;i< _names.length;i++)\n        {\n            candidateList[i] = Candidate(_names[i],1); //init list with names and votes at 0\n        }\n\n    }\n\n    struct Voter {\n        bool hasVoted;\n    }\n\n    struct Candidate {\n\n        string name;\n        uint nVotes;\n\n    }\n\n    function vote(uint id) public{\n\n        candidateList[id].nVotes++;\n\n        voterList[msg.sender] = Voter(true);\n\n    }\n\n    function hasVoted () public view returns (bool) {\n        \n        return voterList[msg.sender].hasVoted;\n    }\n\n\n    function getCandidateVotes(uint id) public view returns (uint) {\n        return candidateList[id].nVotes;\n    }\n\n    \n}",
  "sourcePath": "/home/joao/Desktop/Blockchain_Tutos/voting_v2/contracts/Election.sol",
  "compiler": {
    "name": "solc",
    "version": "0.8.9+commit.e5eed63a.Emscripten.clang"
  },
  "schemaVersion": "3.4.1",
  "updatedAt": "2021-10-06T22:15:45.981Z",
  "networkType": "ethereum",
  "devdoc": {
    "kind": "dev",
    "methods": {},
    "version": 1
  },
  "userdoc": {
    "kind": "user",
    "methods": {},
    "version": 1
  }
}