{
  "contractName": "Election",
  "abi": [
    {
      "inputs": [
        {
          "internalType": "uint256",
          "name": "",
          "type": "uint256"
        }
      ],
      "name": "candidateList",
      "outputs": [
        {
          "internalType": "string",
          "name": "name",
          "type": "string"
        },
        {
          "internalType": "uint256",
          "name": "nVotes",
          "type": "uint256"
        }
      ],
      "stateMutability": "view",
      "type": "function",
      "constant": true
    },
    {
      "inputs": [
        {
          "internalType": "string[]",
          "name": "_names",
          "type": "string[]"
        }
      ],
      "name": "addCandidates",
      "outputs": [],
      "stateMutability": "nonpayable",
      "type": "function"
    },
    {
      "inputs": [
        {
          "internalType": "uint256",
          "name": "id",
          "type": "uint256"
        }
      ],
      "name": "vote",
      "outputs": [],
      "stateMutability": "nonpayable",
      "type": "function"
    },
    {
      "inputs": [
        {
          "internalType": "uint256",
          "name": "id",
          "type": "uint256"
        }
      ],
      "name": "getCandidateVotes",
      "outputs": [
        {
          "internalType": "uint256",
          "name": "",
          "type": "uint256"
        }
      ],
      "stateMutability": "view",
      "type": "function",
      "constant": true
    }
  ],
  "bytecode": "0x608060405234801561001057600080fd5b50610821806100206000396000f3fe608060405234801561001057600080fd5b506004361061004c5760003560e01c80630121b93f14610051578063866163c01461006d578063a999e5621461009d578063b13c744b146100b9575b600080fd5b61006b6004803603810190610066919061035f565b6100ea565b005b6100876004803603810190610082919061035f565b610118565b604051610094919061039b565b60405180910390f35b6100b760048036038101906100b291906105e2565b610137565b005b6100d360048036038101906100ce919061035f565b6101c6565b6040516100e19291906106b3565b60405180910390f35b600080828152602001908152602001600020600101600081548092919061011090610712565b919050555050565b6000806000838152602001908152602001600020600101549050919050565b60005b81518110156101c25760405180604001604052808383815181106101615761016061075b565b5b60200260200101518152602001600081525060008083815260200190815260200160002060008201518160000190805190602001906101a1929190610272565b506020820151816001015590505080806101ba90610712565b91505061013a565b5050565b60006020528060005260406000206000915090508060000180546101e9906107b9565b80601f0160208091040260200160405190810160405280929190818152602001828054610215906107b9565b80156102625780601f1061023757610100808354040283529160200191610262565b820191906000526020600020905b81548152906001019060200180831161024557829003601f168201915b5050505050908060010154905082565b82805461027e906107b9565b90600052602060002090601f0160209004810192826102a057600085556102e7565b82601f106102b957805160ff19168380011785556102e7565b828001600101855582156102e7579182015b828111156102e65782518255916020019190600101906102cb565b5b5090506102f491906102f8565b5090565b5b808211156103115760008160009055506001016102f9565b5090565b6000604051905090565b600080fd5b600080fd5b6000819050919050565b61033c81610329565b811461034757600080fd5b50565b60008135905061035981610333565b92915050565b6000602082840312156103755761037461031f565b5b60006103838482850161034a565b91505092915050565b61039581610329565b82525050565b60006020820190506103b0600083018461038c565b92915050565b600080fd5b6000601f19601f8301169050919050565b7f4e487b7100000000000000000000000000000000000000000000000000000000600052604160045260246000fd5b610404826103bb565b810181811067ffffffffffffffff82111715610423576104226103cc565b5b80604052505050565b6000610436610315565b905061044282826103fb565b919050565b600067ffffffffffffffff821115610462576104616103cc565b5b602082029050602081019050919050565b600080fd5b600080fd5b600067ffffffffffffffff821115610498576104976103cc565b5b6104a1826103bb565b9050602081019050919050565b82818337600083830152505050565b60006104d06104cb8461047d565b61042c565b9050828152602081018484840111156104ec576104eb610478565b5b6104f78482856104ae565b509392505050565b600082601f830112610514576105136103b6565b5b81356105248482602086016104bd565b91505092915050565b600061054061053b84610447565b61042c565b9050808382526020820190506020840283018581111561056357610562610473565b5b835b818110156105aa57803567ffffffffffffffff811115610588576105876103b6565b5b80860161059589826104ff565b85526020850194505050602081019050610565565b5050509392505050565b600082601f8301126105c9576105c86103b6565b5b81356105d984826020860161052d565b91505092915050565b6000602082840312156105f8576105f761031f565b5b600082013567ffffffffffffffff81111561061657610615610324565b5b610622848285016105b4565b91505092915050565b600081519050919050565b600082825260208201905092915050565b60005b8381101561066557808201518184015260208101905061064a565b83811115610674576000848401525b50505050565b60006106858261062b565b61068f8185610636565b935061069f818560208601610647565b6106a8816103bb565b840191505092915050565b600060408201905081810360008301526106cd818561067a565b90506106dc602083018461038c565b9392505050565b7f4e487b7100000000000000000000000000000000000000000000000000000000600052601160045260246000fd5b600061071d82610329565b91507fffffffffffffffffffffffffffffffffffffffffffffffffffffffffffffffff8214156107505761074f6106e3565b5b600182019050919050565b7f4e487b7100000000000000000000000000000000000000000000000000000000600052603260045260246000fd5b7f4e487b7100000000000000000000000000000000000000000000000000000000600052602260045260246000fd5b600060028204905060018216806107d157607f821691505b602082108114156107e5576107e461078a565b5b5091905056fea26469706673582212204cc4b31d6e4eb00c68a13e44a5dfeadb35b23b4652474866a53c7a00587e3a2864736f6c63430008090033",
  "immutableReferences": {},
  "source": "pragma solidity ^0.8.0;\n\ncontract Election {\n\n    mapping(uint => Candidate) public candidateList;\n\n\n    function addCandidates(string [] memory _names) public {\n\n        for(uint i=0;i< _names.length;i++)\n        {\n            candidateList[i] = Candidate(_names[i],0); //init list with names and votes at 0\n        }\n\n    }\n\n\n    struct Candidate {\n\n        string name;\n        uint nVotes;\n\n    }\n\n    function vote(uint id) public{\n\n        candidateList[id].nVotes++;\n\n    }\n\n\n    function getCandidateVotes(uint id) public view returns (uint) {\n        return candidateList[id].nVotes;\n    }\n\n    \n}",
  "sourcePath": "/home/joao/Desktop/Blockchain_Tutos/voting_v2/contracts/Election.sol",
  "compiler": {
    "name": "solc",
    "version": "0.8.9+commit.e5eed63a.Emscripten.clang"
  },
  "schemaVersion": "3.4.1",
  "updatedAt": "2021-10-02T14:36:42.579Z",
  "networkType": "ethereum",
  "devdoc": {
    "kind": "dev",
    "methods": {},
    "version": 1
  },
  "userdoc": {
    "kind": "user",
    "methods": {},
    "version": 1
  }
}